:100000000C942A000C9434000C9434000C943400AA
:100010000C9434000C9434000C9434000C94340090
:100020000C9434000C9434000C9434000C94340080
:100030000C9434000C9434000C9434000C94340070
:100040000C9434000C9434000C9434000C94340060
:100050000C94340011241FBECFE5D8E0DEBFCDBF25
:100060000E9468000C94E1000C94000028E12AB979
:100070009C0140E050E0220F331F441F551F220F08
:10008000331F441F551F220F331F441F551F220FBC
:10009000331F441F551F60E072E18AE790E00E9421
:1000A000BF00DA01C9010197A109B109892F9A2F6F
:1000B000AB2FBB2780BD215029B986E880BD0895AC
:1000C0005F9BFECF8CB108955D9BFECF8CB90895E8
:1000D000DF93CF9300D000D0CDB7DEB78CE089831B
:1000E00086E08A8383E08B8389E08C8380E096E9D5
:1000F0000E9436008FEF84BB84E081BB12BA15BA30
:1001000030E040E0CE01019654E05F9BFECF2CB181
:10011000332321F0213039F1223049F1233069F0C5
:10012000243091F02530A1F0332379F3FC01E40F62
:10013000F11D208125BB31E0E8CF52BBFC01E40F6B
:10014000F11D208125BBF6CF12BA15BA30E0DDCF04
:10015000FC01E40FF11D20815D9BFECF2CB95D9B5E
:10016000FECF3CB9E1CF433030F44F5FDFCF4423C3
:1001700021F04150D9CF40E0D9CF43E0D5CFA1E223
:100180001A2EAA1BBB1BFD010DC0AA1FBB1FEE1F11
:10019000FF1FA217B307E407F50720F0A21BB30B5C
:1001A000E40BF50B661F771F881F991F1A9469F7D8
:1001B00060957095809590959B01AC01BD01CF0134
:0601C0000895F894FFCF42
:00000001FF
